:100000000C9472000C947E000C947E000C947E0084
:100010000C947E000C947E000C947E000C947E0068
:100020000C947E000C947E000C947E000C947E0058
:100030000C947E000C947E000C947E000C947E0048
:100040000C947E000C94260D0C944E0D0C947E00A6
:100050000C94EC0C0C94EF000C941D010C9480009B
:100060000C947E000C947E000C947E000C947E0018
:100070000C947E000C947E000C947E000C947E0008
:100080000C947E000C947E000C947E000C947E00F8
:100090000C947E000C947E000C947E000C947E00E8
:1000A0000C947E000C947E000C947E000C947E00D8
:1000B0000C947E000C947E000C947E000C947E00C8
:1000C0000C947E000C947E000C947E000C947E00B8
:1000D0000C947E000C947E000C947E000C947E00A8
:1000E0000C947E0011241FBECFEFD1E2DEBFCDBF46
:1000F00000E00CBF0E941A060C9481100C940000C2
:100100001F920F920FB60F9211240BB60F922F93DE
:100110008F939F93EF93FF93CF93DF93CDB7DEB78A
:1001200087E490E0FC0180818823C9F488E490E0B2
:10013000FC018081882399F482E091E0FC01208118
:1001400082E091E02F7BFC01208381E390E0FC01C1
:10015000208181E390E02F7DFC01208331C087E482
:1001600090E0FC018081882399F081E390E0FC011C
:10017000208181E390E02F7DFC01208382E091E0EB
:10018000FC01208182E091E02064FC01208318C002
:1001900088E490E0FC018081882391F082E091E086
:1001A000FC01208182E091E02F7BFC01208381E330
:1001B00090E0FC01208181E390E02062FC0120833B
:1001C0000000DF91CF91FF91EF919F918F912F913F
:1001D0000F900BBE0F900FBE0F901F9018951F929F
:1001E0000F920FB60F9211240BB60F922F938F938D
:1001F0009F93EF93FF93CF93DF93CDB7DEB787E461
:1002000090E0FC0180818F3F49F082E091E0FC01A9
:10021000208182E091E02F7BFC0120830000DF91B0
:10022000CF91FF91EF919F918F912F910F900BBEE6
:100230000F900FBE0F901F9018951F920F920FB640
:100240000F9211240BB60F922F938F939F93EF93DE
:10025000FF93CF93DF93CDB7DEB788E490E0FC0146
:1002600080818F3F49F081E390E0FC01208181E3B0
:1002700090E02F7DFC0120830000DF91CF91FF9162
:10028000EF919F918F912F910F900BBE0F900FBE0A
:100290000F901F901895CF93DF93CDB7DEB781E015
:1002A00091E0FC01208181E091E02064FC01208349
:1002B00080E390E0FC01208180E390E02062FC017B
:1002C000208382E091E0FC01208182E091E02F7B9D
:1002D000FC01208381E390E0FC01208181E390E038
:1002E0002F7DFC01208384E490E0FC01108285E4F2
:1002F00090E023E0FC01208387E490E0FC01108281
:1003000088E490E0FC0110828EE690E027E0FC019A
:10031000208378940000DF91CF910895CF93DF93ED
:100320000F92CDB7DEB7898389818C39E4F1898159
:10033000843609F0C4F589818823DCF088E490E0F4
:10034000FC0110828981082E000C990B2FEF289F49
:10035000A001299F500D112424E630E0CA01B90103
:100360000E94940ECB019C0187E490E0FC01208365
:100370001AC087E490E0FC0110828981082E000CED
:10038000990B2FEF289FA001299F500D11242CE9D4
:100390003FEFCA01B9010E94940ECB019C0188E491
:1003A00090E0FC01208300000F90DF91CF91089531
:1003B000CF93DF93CDB7DEB70E944B010E94760D3D
:1003C0000000DF91CF910895CF93DF93CDB7DEB7D3
:1003D000C654D1090FB6F894DEBF0FBECDBF9E8FB5
:1003E0008D8F8D8D9E8D8130910509F04BC185E2F9
:1003F00090E0DC012C9185E290E02F77FC012083D6
:1004000085E290E0DC012C9185E290E02064FC0123
:10041000208380E090E0A8E4B3E48F87988BA98BD9
:10042000BA8B20E030E04AE755E46F857889898906
:100430009A890E9414106FA378A789A79AA78FA101
:1004400098A5A9A5BAA58B8B9C8BAD8BBE8B20E004
:1004500030E040E85FE36B897C898D899E890E944A
:10046000290F88232CF481E090E0988F8F8B55C062
:1004700020E03FEF4FE757E46B897C898D899E89A7
:100480000E940F108823D9F1D4F120E030E040E23F
:1004900051E46F85788989899A890E9414106BA725
:1004A0007CA78DA79EA78BA59CA5ADA5BEA58BA35C
:1004B0009CA3ADA3BEA36BA17CA18DA19EA10E9414
:1004C0002E0F6FA778AB89AB9AABAFA5B8A9B88F41
:1004D000AF8B10C080E991E09A8F898F898D9A8DBA
:1004E0000197F1F79A8F898F00008F89988D019776
:1004F000988F8F8B8F89988D009761F719C06B89C2
:100500007C898D899E890E942E0F6BAB7CAB8DAB55
:100510009EABEBA9FCA9F88FEF8B8F89988D9C8FF0
:100520008B8F8B8D9C8D0197F1F79C8F8B8F0000AB
:1005300085E290E0DC012C9185E290E02068FC01EE
:10054000208385E290E0DC012C9185E290E02F7B16
:10055000FC01208380E090E0A8E4B3E489839A83DF
:10056000AB83BC8320E030E04AE755E469817A81BF
:100570008B819C810E9414106FAB78AF89AF9AAFCA
:100580008FA998ADA9ADBAAD8D839E83AF83B8878F
:1005900020E030E040E85FE36D817E818F819885C7
:1005A0000E94290F88232CF481E090E09A878987A4
:1005B0005EC020E03FEF4FE757E46D817E818F8181
:1005C00098850E940F10882309F00CF43EC020E0AB
:1005D00030E040E251E469817A818B819C810E9404
:1005E00014106BAF7CAF8DAF9EAF8BAD9CADADAD3E
:1005F000BEAD8F8F98A3A9A3BAA36F8D78A189A14F
:100600009AA10E942E0F23966CAF7DAF8EAF9FAF45
:1006100023972196AEADBFAD2197BA87A98710C0A9
:1006200080E991E09C878B878B859C850197F1F70A
:100630009C878B87000089859A8501979A8789878F
:1006400089859A85009761F71DC06D817E818F81B4
:1006500098850E942E0F27966CAF7DAF8EAF9FAF0F
:1006600027972596EEADFFAD2597FA87E98789850F
:100670009A859E878D878D859E850197F1F79E8748
:100680008D8700000000CA5BDF4F0FB6F894DEBF15
:100690000FBECDBFDF91CF910895CF93DF930F921F
:1006A0000F92CDB7DEB79A83898389819A81813091
:1006B000910591F485E290E0FC01208185E290E0D3
:1006C0002068FC01208385E290E0FC01208185E226
:1006D00090E02064FC01208300000F900F90DF91D8
:1006E000CF910895CF93DF930F920F92CDB7DEB7DE
:1006F0009A83898389819A818130910519F480EBED
:100700000E94AC0D00000F900F90DF91CF910895E3
:10071000CF93DF930F920F92CDB7DEB79A83898381
:1007200089819A818130910519F480EB0E94200E15
:1007300000000F900F90DF91CF910895CF93DF933A
:100740000F920F92CDB7DEB79A83898389819A8100
:100750008130910531F480E50E94AC0D80E50E9466
:10076000200E00000F900F90DF91CF910895CF934E
:10077000DF930F920F92CDB7DEB79A838983898179
:100780009A818130910521F481E20E948E0107C097
:1007900089819A81009719F480E00E948E010000FF
:1007A0000F900F90DF91CF910895CF93DF930F9229
:1007B0000F92CDB7DEB79A83898389819A81813080
:1007C000910521F48FED0E948E0107C089819A81E5
:1007D000009719F480E00E948E0100000F900F90A6
:1007E000DF91CF910895CF93DF930F920F92CDB702
:1007F000DEB79A83898389819A8181309105B1F529
:100800008BE091E0FC0120818BE091E02F7EFC01E8
:1008100020838BE091E0FC0120818BE091E0286057
:10082000FC0120838BE091E0FC0120818BE091E0D2
:100830002062FC0120838BE091E0FC0120818BE0B1
:1008400091E02F7BFC0120838BE091E0FC01208173
:100850008BE091E02068FC01208384E390E0FC01C0
:10086000208184E390E02160FC01208300000F9050
:100870000F90DF91CF910895CF93DF930F920F9256
:10088000CDB7DEB79A83898389819A8181309105BA
:10089000B1F58BE091E0FC0120818BE091E02F7EAF
:1008A000FC0120838BE091E0FC0120818BE091E052
:1008B000277FFC0120838BE091E0FC0120818BE00D
:1008C00091E02062FC0120838BE091E0FC0120811B
:1008D0008BE091E02F7BFC0120838BE091E0FC0119
:1008E00020818BE091E0277FFC01208384E390E06E
:1008F000FC01208184E390E02062FC012083000061
:100900000F900F90DF91CF910895CF93DF930F92C7
:100910000F92CDB7DEB79A83898389819A8181301E
:100920009105B1F58BE091E0FC0120818BE091E035
:100930002F7EFC0120838BE091E0FC0120818BE085
:1009400091E02860FC0120838BE091E0FC01208194
:100950008BE091E02F7DFC0120838BE091E0FC0196
:1009600020818BE091E02064FC0120838BE091E00A
:10097000FC0120818BE091E02068FC01208384E36E
:1009800090E0FC01208184E390E02E7FFC01208335
:1009900000000F900F90DF91CF910895CF93DF93D8
:1009A0000F920F92CDB7DEB79A83898389819A819E
:1009B00081309105B1F58BE091E0FC0120818BE065
:1009C00091E02061FC0120838BE091E0FC0120811B
:1009D0008BE091E02860FC0120838BE091E0FC013A
:1009E00020818BE091E02F7DFC0120838BE091E062
:1009F000FC0120818BE091E02F7BFC0120838BE0C8
:100A000091E0FC0120818BE091E02068FC012083D3
:100A100084E390E0FC01208184E390E02E7FFC01E0
:100A2000208300000F900F90DF91CF910895CF9316
:100A3000DF930F920F92CDB7DEB79A8389838981B6
:100A40009A818130910591F488E290E0FC01208147
:100A500088E290E02260FC01208388E290E0FC01C3
:100A6000208188E290E02E7FFC01208300000F901F
:100A70000F90DF91CF910895CF93DF930F920F9254
:100A8000CDB7DEB79A83898389819A8181309105B8
:100A900091F488E290E0FC01208188E290E02D7FD3
:100AA000FC01208388E290E0FC01208188E290E054
:100AB0002E7FFC01208300000F900F90DF91CF91DB
:100AC0000895CF93DF930F920F92CDB7DEB79A833D
:100AD000898389819A818130910509F048C088E233
:100AE00090E0FC01208188E290E02260FC012083FC
:100AF00088E290E0FC01208188E290E02160FC0126
:100B000020838BE091E0FC0120818BE091E020616B
:100B1000FC0120838BE091E0FC0120818BE091E0DF
:100B2000277FFC0120838BE091E0FC0120818BE09A
:100B300091E02062FC0120838BE091E0FC012081A8
:100B40008BE091E02064FC0120838BE091E0FC01CC
:100B500020818BE091E02F77FC01208384E390E0FB
:100B6000FC01208184E390E02160FC0120830000EF
:100B70000F900F90DF91CF910895CF93DF930F9255
:100B80000F92CDB7DEB79A83898389819A818130AC
:100B9000910591F488E290E0FC01208188E290E0E8
:100BA0002D7FFC01208388E290E0FC01208188E217
:100BB00090E02E7FFC01208300000F900F90DF91CA
:100BC000CF910895CF93DF930F920F92CDB7DEB7F9
:100BD0009A83898389819A818130910549F48EE2D3
:100BE00090E0FC0120818EE290E02F7DFC012083CB
:100BF00000000F900F90DF91CF910895CF93DF9376
:100C00000F920F92CDB7DEB79A83898389819A813B
:100C10008130910549F48EE290E0FC0120818EE262
:100C200090E02062FC01208300000F900F90DF9184
:100C3000CF9108950F931F93CF93DF93CDB7DEB776
:100C4000CA5BD1090FB6F894DEBF0FBECDBF0E94BC
:100C5000D80184E290E0DC012C9184E290E02068ED
:100C6000FC01208384E290E0DC012C9184E290E09E
:100C70002064FC0120838AE091E0DC012C918AE071
:100C800091E02061FC0120838AE091E0DC012C915D
:100C90008AE091E02062FC0120838AE091E0DC019F
:100CA0002C918AE091E02860FC0120838AE091E0A9
:100CB000DC012C918AE091E02064FC01208383E335
:100CC00090E0DC012C9183E390E02160FC01208323
:100CD0008AE091E0DC012C918AE091E02068FC013F
:100CE000208387E290E0DC012C9187E290E0226093
:100CF000FC01208387E290E0DC012C9187E290E008
:100D00002160FC0120838DE290E0DC012C918DE2DA
:100D100090E02062FC01208381E091E0DC012C91D5
:100D200081E091E02064FC01208380E390E0DC011D
:100D30002C9180E390E02062FC01208385E290E02A
:100D4000DC012C9185E290E02068FC01208385E2A3
:100D500090E0DC012C9185E290E02064FC0120838E
:100D60008BE091E0DC012C918BE091E02061FC01B3
:100D700020838BE091E0DC012C918BE091E02062FC
:100D8000FC0120838BE091E0DC012C918BE091E071
:100D90002860FC0120838BE091E0DC012C918BE04A
:100DA00091E02064FC01208384E390E0DC012C913D
:100DB00084E390E02160FC0120838BE091E0DC0182
:100DC0002C918BE091E02068FC01208388E290E088
:100DD000DC012C9188E290E02260FC01208388E213
:100DE00090E0DC012C9188E290E02160FC012083FE
:100DF0008EE290E0DC012C918EE290E02062FC011A
:100E0000208381E390E0DC012C9181E390E020627B
:100E1000FC01208382E091E0DC012C9182E091E0F2
:100E20002064FC01208380E390E0DC012C9180E3CE
:100E300090E02B7FFC01208380E390E0DC012C918B
:100E400080E390E02D7FFC01208380E390E0DC01D3
:100E50002C9180E390E0277FFC01208380E390E0E9
:100E6000DC012C9180E390E02F7EFC01208387E061
:100E700091E0DC012C9187E091E02E7FFC01208342
:100E800087E091E0DC012C9187E091E02D7FFC016F
:100E9000208381E090E09E878D871A8219821C82D0
:100EA0001B821E821D8218861F82188A1F8681E07F
:100EB00090E09A87898781E090E00E949E0380E01D
:100EC0000E948E0183C58FE290E0DC018C91882F17
:100ED00090E082709927009709F0A8C080E090E028
:100EE000A0E2B1E4898B9A8BAB8BBC8B20E030E025
:100EF0004AE755E469897A898B899C890E94141094
:100F0000AF966CAF7DAF8EAF9FAFAF97AF968CAD06
:100F10009DADAEADBFADAF978D8B9E8BAF8BB88FB8
:100F200020E030E040E85FE36D897E898F89988D0D
:100F30000E94290F88232CF481E090E09A8F898FFA
:100F400066C020E03FEF4FE757E46D897E898F89C7
:100F5000988D0E940F10882309F00CF446C020E001
:100F600030E040E251E469897A898B899C890E944A
:100F70001410E3966CAF7DAF8EAF9FAFE397E3960F
:100F80008CAD9DADAEADBFADE3976B968CAF9DAF15
:100F9000AEAFBFAF6B976B966CAD7DAD8EAD9FADB9
:100FA0006B970E942E0FE7966CAF7DAF8EAF9FAF11
:100FB000E797E596AEADBFADE597BA8FA98F10C0A4
:100FC00080E991E09C8F8B8F8B8D9C8D0197F1F741
:100FD0009C8F8B8F0000898D9A8D01979A8F898FB6
:100FE000898D9A8D009761F71DC06D897E898F89E3
:100FF000988D0E942E0FEB966CAF7DAF8EAF9FAF9A
:10100000EB97E996EEADFFADE997FA8FE98F898D01
:101010009A8D9E8F8D8F8D8D9E8D0197F1F79E8F6E
:101020008D8F000081E090E09A8389838FE290E0C9
:10103000DC018C91882F90E084709927009709F04B
:10104000B4C080E090E0A0E2B1E48F8F98A3A9A3A0
:10105000BAA320E030E04AE755E46F8D78A189A17A
:101060009AA10E941410EF966CAF7DAF8EAF9FAF28
:10107000EF97EF968CAD9DADAEADBFADEF978BA367
:101080009CA3ADA3BEA320E030E040E85FE36BA1EA
:101090007CA18DA19EA10E94290F88232CF481E0C0
:1010A00090E098A78FA372C020E03FEF4FE757E48E
:1010B0006BA17CA18DA19EA10E940F10882309F035
:1010C0000CF44EC020E030E040E251E46F8D78A196
:1010D00089A19AA10E941410C158DF4F68837983B7
:1010E0008A839B83CF57D040C158DF4F8881998135
:1010F000AA81BB81CF57D0406F968CAF9DAFAEAF6A
:10110000BFAF6F976F966CAD7DAD8EAD9FAD6F9796
:101110000E942E0FCD57DF4F688379838A839B838C
:10112000C358D040CD57DF4FA881B981C358D040B4
:10113000B8A7AFA310C080E991E09AA789A789A5B5
:101140009AA50197F1F79AA789A700008FA198A502
:10115000019798A78FA38FA198A5009761F721C049
:101160006BA17CA18DA19EA10E942E0FC957DF4FBC
:10117000688379838A839B83C758D040C957DF4FE0
:10118000E881F981C758D040F8A7EFA38FA198A5AF
:101190009CA78BA78BA59CA50197F1F79CA78BA774
:1011A000000081E090E09C838B838FE290E0DC0183
:1011B0008C91882F90E088709927009709F0B8C02B
:1011C00080E090E0A0E2B1E48DA79EA7AFA7B8AB06
:1011D00020E030E04AE755E46DA57EA58FA598A9EB
:1011E0000E941410C557DF4F688379838A839B83DD
:1011F000CB58D040C557DF4F88819981AA81BB81E8
:10120000CB58D04089AB9AABABABBCAB20E030E065
:1012100040E85FE369A97AA98BA99CA90E94290FDC
:1012200088232CF481E090E09EAB8DAB72C020E06F
:101230003FEF4FE757E469A97AA98BA99CA90E94BF
:101240000F10882309F00CF44EC020E030E040E29B
:1012500051E46DA57EA58FA598A90E941410C157D1
:10126000DF4F688379838A839B83CF58D040C157EF
:10127000DF4F88819981AA81BB81CF58D040A39646
:101280008CAF9DAFAEAFBFAFA397A3966CAD7DAD56
:101290008EAD9FADA3970E942E0FCD56DF4F688372
:1012A00079838A839B83C359D040CD56DF4FA88171
:1012B000B981C359D040BEABADAB10C080E991E05D
:1012C00098AF8FAB8FA998AD0197F1F798AF8FAB1F
:1012D00000008DA99EA901979EAB8DAB8DA99EA9FB
:1012E000009761F721C069A97AA98BA99CA90E94DE
:1012F0002E0FC956DF4F688379838A839B83C75932
:10130000D040C956DF4FE881F981C759D040FEABC4
:10131000EDAB8DA99EA99AAF89AF89AD9AAD019722
:10132000F1F79AAF89AF000081E090E09E838D8352
:1013300086E091E0DC018C91882F90E08170992704
:10134000009709F0FCC080E090E0A0E2B1E48BAF30
:101350009CAFADAFBEAF8E01015C1F4F20E030E00F
:101360004AE755E46BAD7CAD8DAD9EAD0E94141087
:10137000C556DF4F688379838A839B83CB59D040DE
:10138000C556DF4F88819981AA81BB81CB59D04056
:10139000F80180839183A283B383CE01CF9620E0AE
:1013A00030E040E85FE3DC016D917D918D919C918F
:1013B0000E94290F88234CF4CE018D5B9F4F21E0C2
:1013C00030E0FC01318320839BC0CE01CF9620E02A
:1013D0003FEF4FE757E4DC016D917D918D919C913A
:1013E0000E940F10882309F00CF46DC020E030E05B
:1013F00040E251E46BAD7CAD8DAD9EAD0E9414100A
:10140000C156DF4F688379838A839B83CF59D0404D
:10141000C156DF4F88819981AA81BB81CF59D040C5
:10142000A7968CAF9DAFAEAFBFAFA7978E010D5BF8
:101430001F4FA7966CAD7DAD8EAD9FADA7970E9457
:101440002E0FCD55DF4F688379838A839B83C35AE0
:10145000D040CD55DF4FE881F981C35AD040D80143
:101460001196FC93EE9326C0CE018B5B9F4F20E933
:1014700031E0DC012D933C93CE018B5B9F4FFC014F
:10148000808191810197F1F79E012B5B3F4FD9013C
:101490008D939C930000CE018D5B9F4F9E012D5B31
:1014A0003F4FF9012081318121503109DC01119632
:1014B0003C932E93CE018D5B9F4FFC0180819181E7
:1014C000009791F638C08E010D5B1F4FCE01CF966D
:1014D000DC016D917D918D919C910E942E0FC955DB
:1014E000DF4F688379838A839B83C75AD040C9556D
:1014F000DF4F88819981C75AD040F801918380835A
:10150000CE01895B9F4F9E012D5B3F4FD9012D91ED
:101510003C91FC0131832083CE01895B9F4FDC012C
:101520008D919C910197F1F79E01295B3F4FF90145
:1015300091838083000081E090E098878F8386E02C
:1015400091E0DC018C91882F90E0827099270097C0
:1015500009F00CC19E01275B3F4F80E090E0A0E2C4
:10156000B1E4F90180839183A283B3838E01035B8D
:101570001F4FCE01875B9F4F20E030E04AE755E4E4
:10158000DC016D917D918D919C910E941410C55547
:10159000DF4F688379838A839B83CB5AD040C555BC
:1015A000DF4F88819981AA81BB81CB5AD040F80155
:1015B00080839183A283B383CE01835B9F4F20E01E
:1015C00030E040E85FE3DC016D917D918D919C916D
:1015D0000E94290F88234CF4CE018F5A9F4F21E09F
:1015E00030E0FC0131832083A1C0CE01835B9F4F9B
:1015F00020E03FEF4FE757E4DC016D917D918D9145
:101600009C910E940F10882309F00CF471C0CE0148
:10161000875B9F4F20E030E040E251E4FC016081B5
:101620007181828193810E941410C155DF4F6883BC
:1016300079838A839B83CF5AD040C155DF4F8881FD
:101640009981AA81BB81CF5AD040AB968CAF9DAF18
:10165000AEAFBFAFAB978E010F5A1F4FAB966CADBD
:101660007DAD8EAD9FADAB970E942E0FCD54DF4F59
:10167000688379838A839B83C35BD040CD54DF4FDB
:10168000E881F981C35BD040D8011196FC93EE93B9
:1016900026C0CE018D5A9F4F20E931E0DC012D9309
:1016A0003C93CE018D5A9F4FFC018081918101971F
:1016B000F1F79E012D5A3F4FD9018D939C93000065
:1016C000CE018F5A9F4F9E012F5A3F4FF901208123
:1016D000318121503109DC0111963C932E93CE01CA
:1016E0008F5A9F4FFC0180819181009791F63AC0FB
:1016F0008E010F5A1F4FCE01835B9F4FDC016D910E
:101700007D918D919C910E942E0FC954DF4F68836B
:1017100079838A839B83C75BD040C954DF4F88811C
:101720009981C75BD040F80191838083CE018B5AA9
:101730009F4F9E012F5A3F4FD9012D913C91FC01A3
:1017400031832083CE018B5A9F4FDC018D919C9178
:1017500011970197F1F79E012B5A3F4FF9019183A1
:101760008083000081E090E09C838B8389859A854B
:101770008630910509F411C189859A8586309105D5
:1017800011F00CF023C189859A858530910509F403
:10179000E5C089859A858530910511F00CF016C158
:1017A00089859A858430910509F4B1C089859A8527
:1017B0008430910511F00CF009C189859A85833038
:1017C000910509F481C089859A858330910511F0CE
:1017D0000CF0FCC089859A858130910539F08985A6
:1017E0009A858230910509F450C0F0C081E090E004
:1017F0000E949E0381E090E00E943C0481E090E022
:101800000E94170589819A818130910579F51C869E
:101810001B8619C081E090E00E943C0581E090E0C9
:101820000E94E20581E090E00E94F30381E090E0F5
:101830000E94E40181E090E00E9472038B859C8508
:1018400001969C878B878B859C858430910511F34D
:101850000CF381E090E00E94FE0581E090E00E94A0
:10186000880382E090E09A878987B0C08D819E814D
:101870008130910529F486E090E09A878987A6C097
:1018800081E090E09A878987A1C081E090E00E9482
:10189000F30381E090E00E94E40181E090E00E9487
:1018A000B7038F8198858130910549F480E090E0FD
:1018B0000E94B70383E090E09A87898787C082E01F
:1018C00090E09A87898782C081E090E00E94850439
:1018D00081E090E00E944D0381E090E00E94CE0400
:1018E00081E090E00E944D0381E090E00E943C0482
:1018F0008B819C818130910529F484E090E09A8766
:10190000898764C083E090E09A8789875FC081E01F
:1019100090E00E94E20581E090E00E943C0481E0BA
:1019200090E00E94E40181E090E00E94D5038F8561
:1019300098898130910569F480E090E00E94D50398
:1019400081E090E00E94FE0585E090E09A8789871B
:101950003DC084E090E09A87898738C081E090E0BC
:101960000E949E0381E090E00E944D0381E090E0A0
:101970000E943C0481E090E00E9417058D819E81C9
:101980008130910529F486E090E09A8789871EC00E
:1019900085E090E09A87898719C081E090E00E94F5
:1019A00061051E821D828D819E818130910549F4E1
:1019B00081E090E00E94BD0581E090E09A878987F0
:1019C00004C086E090E09A87898700008D859E8517
:1019D000009709F078CA5DCA1F920F920FB60F9256
:1019E00011240BB60F922F933F938F939F93EF93F6
:1019F000FF93CF93DF93CDB7DEB784E890E024E286
:101A000034E6FC01318320838EE290E0FC012081EA
:101A10008EE290E02860FC01208382E091E0FC01EE
:101A2000208182E091E02860FC0120830000DF91AA
:101A3000CF91FF91EF919F918F913F912F910F90B7
:101A40000BBE0F900FBE0F901F9018951F920F9214
:101A50000FB60F9211240BB60F922F938F939F9373
:101A6000EF93FF93CF93DF93CDB7DEB78EE290E095
:101A7000FC0120818EE290E0277FFC0120830000A2
:101A8000DF91CF91FF91EF919F918F912F910F90C7
:101A90000BBE0F900FBE0F901F9018951F920F92C4
:101AA0000FB60F9211240BB60F922F938F939F9323
:101AB000EF93FF93CF93DF93CDB7DEB782E091E052
:101AC000FC01208182E091E0277FFC01208300005F
:101AD000DF91CF91FF91EF919F918F912F910F9077
:101AE0000BBE0F900FBE0F901F901895CF93DF93F2
:101AF000CDB7DEB78DE290E0FC0120818DE290E071
:101B00002860FC01208381E091E0FC01208181E0DC
:101B100091E02860FC01208380E890E0FC011082C5
:101B200081E890E022E0FC0120838FE690E027E04E
:101B3000FC01208384E890E024E234E6FC01318358
:101B4000208380E00E94AC0D80E00E94200E7894FB
:101B50000000DF91CF9108950F931F93CF93DF93F0
:101B6000CDB7DEB76D970FB6F894DEBF0FBECDBF11
:101B7000898389818C390CF457C08981843611F0AE
:101B80000CF052C08981282F880F330B440B550B62
:101B90002E873F87488B598B6E857F8588899989E9
:101BA0000E945F0F6A837B838C839D8320E030E0FB
:101BB00040E251E46A817B818C819D810E941410F6
:101BC0006A8B7B8B8C8B9D8B8A899B89AC89BD8929
:101BD0008E839F83A887B98720E038EB4FED56E4CA
:101BE0006E817F81888599850E94BD0E6E8B7F8B6B
:101BF000888F998F2E893F89488D598D2A873B87F9
:101C00004C875D8708E810E06A857B858C859D851B
:101C10000E942E0F6A8F7B8F8C8F9D8F8A8D9B8D5C
:101C2000D80111969C938E9300006D960FB6F89490
:101C3000DEBF0FBECDBFDF91CF911F910F910895F1
:101C40000F931F93CF93DF93CDB7DEB76D970FB68A
:101C5000F894DEBF0FBECDBF898389818C390CF427
:101C600057C08981843611F00CF052C08981282F29
:101C7000880F330B440B550B2E873F87488B598BAE
:101C80006E857F85888999890E945F0F6A837B832F
:101C90008C839D8320E030E040E251E46A817B81C7
:101CA0008C819D810E9414106A8B7B8B8C8B9D8B09
:101CB0008A899B89AC89BD898E839F83A887B987D0
:101CC00020E038EB4FED56E46E817F818885998561
:101CD0000E94BD0E6E8B7F8B888F998F2E893F89D6
:101CE000488D598D2A873B874C875D870AE810E02D
:101CF0006A857B858C859D850E942E0F6A8F7B8FE0
:101D00008C8F9D8F8A8D9B8DD80111969C938E937D
:101D100000006D960FB6F894DEBF0FBECDBFDF9109
:101D2000CF911F910F91089597FB072E16F4009401
:101D300007D077FD09D00E94A80E07FC05D03EF41D
:101D4000909581959F4F0895709561957F4F089567
:101D5000AA1BBB1B51E107C0AA1FBB1FA617B707D1
:101D600010F0A61BB70B881F991F5A95A9F78095ED
:101D70009095BC01CD0108955058BB27AA270E9419
:101D8000D40E0C94D50F0E94C70F38F00E94CE0FCE
:101D900020F039F49F3F19F426F40C94C40F0EF48C
:101DA000E095E7FB0C94BE0FE92F0E94E60F58F375
:101DB000BA17620773078407950720F079F4A6F530
:101DC0000C9408100EF4E0950B2EBA2FA02D0B01E9
:101DD000B90190010C01CA01A0011124FF27591B70
:101DE00099F0593F50F4503E68F11A16F040A22F76
:101DF000232F342F4427585FF3CF469537952795E7
:101E0000A795F0405395C9F77EF41F16BA0B620BE5
:101E1000730B840BBAF09150A1F0FF0FBB1F661F2C
:101E2000771F881FC2F70EC0BA0F621F731F841F6F
:101E300048F4879577956795B795F7959E3F08F095
:101E4000B0CF9395880F08F09927EE0F9795879557
:101E500008950E949A0F08F481E008950E94EE0F01
:101E600088F09F5798F0B92F9927B751B0F0E1F05B
:101E7000660F771F881F991F1AF0BA95C9F714C00B
:101E8000B13091F00E940810B1E008950C94081050
:101E9000672F782F8827B85F39F0B93FCCF3869544
:101EA00077956795B395D9F73EF4909580957095A1
:101EB00061957F4F8F4F9F4F0895E89409C097FB1E
:101EC0003EF490958095709561957F4F8F4F9F4F11
:101ED0009923A9F0F92F96E9BB279395F695879555
:101EE00077956795B795F111F8CFFAF4BB0F11F418
:101EF00060FF1BC06F5F7F4F8F4F9F4F16C08823BF
:101F000011F096E911C0772321F09EE8872F762FF4
:101F100005C0662371F096E8862F70E060E02AF035
:101F20009A95660F771F881FDAF7880F9695879521
:101F300097F90895990F0008550FAA0BE0E8FEEFF6
:101F400016161706E807F907C0F012161306E4077D
:101F5000F50798F0621B730B840B950B39F40A2676
:101F600061F0232B242B252B21F408950A2609F454
:101F7000A140A6958FEF811D811D089597F99F6758
:101F800080E870E060E008959FEF80EC0895002401
:101F90000A941616170618060906089500240A94CE
:101FA00012161306140605060895092E0394000C54
:101FB00011F4882352F0BB0F40F4BF2B11F460FFE3
:101FC00004C06F5F7F4F8F4F9F4F089557FD90580C
:101FD000440F551F59F05F3F71F04795880F97FBED
:101FE000991F61F09F3F79F08795089512161306A7
:101FF0001406551FF2CF4695F1DF08C016161706D6
:102000001806991FF1CF869571056105089408950A
:10201000E894BB2766277727CB0197F908950E949C
:102020009A0F08F48FEF08950E9427100C94D50F93
:102030000E94C70F38F00E94CE0F20F0952311F0B8
:102040000C94BE0F0C94C40F11240C9409100E9420
:10205000E60F70F3959FC1F3950F50E0551F629FF7
:10206000F001729FBB27F00DB11D639FAA27F00DF1
:10207000B11DAA1F649F6627B00DA11D661F829F18
:102080002227B00DA11D621F739FB00DA11D621FFD
:10209000839FA00D611D221F749F3327A00D611D1A
:1020A000231F849F600D211D822F762F6A2F1124FC
:1020B0009F5750409AF0F1F088234AF0EE0FFF1F2F
:1020C000BB1F661F771F881F91505040A9F79E3F86
:1020D000510580F00C94BE0F0C9409105F3FE4F39F
:1020E000983ED4F3869577956795B795F795E795DC
:1020F0009F5FC1F7FE2B880F911D9695879597F9E5
:062100000895F894FFCFE2
:00000001FF
